{
  "contractName": "Caves",
  "abi": [
    {
      "inputs": [],
      "stateMutability": "nonpayable",
      "type": "constructor"
    },
    {
      "anonymous": false,
      "inputs": [
        {
          "indexed": true,
          "internalType": "address",
          "name": "owner",
          "type": "address"
        },
        {
          "indexed": true,
          "internalType": "address",
          "name": "approved",
          "type": "address"
        },
        {
          "indexed": true,
          "internalType": "uint256",
          "name": "tokenId",
          "type": "uint256"
        }
      ],
      "name": "Approval",
      "type": "event"
    },
    {
      "anonymous": false,
      "inputs": [
        {
          "indexed": true,
          "internalType": "address",
          "name": "owner",
          "type": "address"
        },
        {
          "indexed": true,
          "internalType": "address",
          "name": "operator",
          "type": "address"
        },
        {
          "indexed": false,
          "internalType": "bool",
          "name": "approved",
          "type": "bool"
        }
      ],
      "name": "ApprovalForAll",
      "type": "event"
    },
    {
      "anonymous": false,
      "inputs": [
        {
          "indexed": true,
          "internalType": "address",
          "name": "from",
          "type": "address"
        },
        {
          "indexed": true,
          "internalType": "address",
          "name": "to",
          "type": "address"
        },
        {
          "indexed": true,
          "internalType": "uint256",
          "name": "tokenId",
          "type": "uint256"
        }
      ],
      "name": "Transfer",
      "type": "event"
    },
    {
      "inputs": [
        {
          "internalType": "uint256",
          "name": "",
          "type": "uint256"
        }
      ],
      "name": "allCaves",
      "outputs": [
        {
          "internalType": "uint8",
          "name": "holesCount",
          "type": "uint8"
        },
        {
          "internalType": "uint8",
          "name": "materialsCount",
          "type": "uint8"
        }
      ],
      "stateMutability": "view",
      "type": "function",
      "constant": true
    },
    {
      "inputs": [
        {
          "internalType": "address",
          "name": "to",
          "type": "address"
        },
        {
          "internalType": "uint256",
          "name": "tokenId",
          "type": "uint256"
        }
      ],
      "name": "approve",
      "outputs": [],
      "stateMutability": "nonpayable",
      "type": "function"
    },
    {
      "inputs": [
        {
          "internalType": "address",
          "name": "owner",
          "type": "address"
        }
      ],
      "name": "balanceOf",
      "outputs": [
        {
          "internalType": "uint256",
          "name": "",
          "type": "uint256"
        }
      ],
      "stateMutability": "view",
      "type": "function",
      "constant": true
    },
    {
      "inputs": [],
      "name": "baseURI",
      "outputs": [
        {
          "internalType": "string",
          "name": "",
          "type": "string"
        }
      ],
      "stateMutability": "view",
      "type": "function",
      "constant": true
    },
    {
      "inputs": [
        {
          "internalType": "string",
          "name": "",
          "type": "string"
        }
      ],
      "name": "caveURIExists",
      "outputs": [
        {
          "internalType": "bool",
          "name": "",
          "type": "bool"
        }
      ],
      "stateMutability": "view",
      "type": "function",
      "constant": true
    },
    {
      "inputs": [],
      "name": "cavesCount",
      "outputs": [
        {
          "internalType": "uint256",
          "name": "",
          "type": "uint256"
        }
      ],
      "stateMutability": "view",
      "type": "function",
      "constant": true
    },
    {
      "inputs": [
        {
          "internalType": "uint256",
          "name": "tokenId",
          "type": "uint256"
        }
      ],
      "name": "getApproved",
      "outputs": [
        {
          "internalType": "address",
          "name": "",
          "type": "address"
        }
      ],
      "stateMutability": "view",
      "type": "function",
      "constant": true
    },
    {
      "inputs": [
        {
          "internalType": "address",
          "name": "owner",
          "type": "address"
        },
        {
          "internalType": "address",
          "name": "operator",
          "type": "address"
        }
      ],
      "name": "isApprovedForAll",
      "outputs": [
        {
          "internalType": "bool",
          "name": "",
          "type": "bool"
        }
      ],
      "stateMutability": "view",
      "type": "function",
      "constant": true
    },
    {
      "inputs": [],
      "name": "name",
      "outputs": [
        {
          "internalType": "string",
          "name": "",
          "type": "string"
        }
      ],
      "stateMutability": "view",
      "type": "function",
      "constant": true
    },
    {
      "inputs": [
        {
          "internalType": "uint256",
          "name": "tokenId",
          "type": "uint256"
        }
      ],
      "name": "ownerOf",
      "outputs": [
        {
          "internalType": "address",
          "name": "",
          "type": "address"
        }
      ],
      "stateMutability": "view",
      "type": "function",
      "constant": true
    },
    {
      "inputs": [
        {
          "internalType": "address",
          "name": "from",
          "type": "address"
        },
        {
          "internalType": "address",
          "name": "to",
          "type": "address"
        },
        {
          "internalType": "uint256",
          "name": "tokenId",
          "type": "uint256"
        }
      ],
      "name": "safeTransferFrom",
      "outputs": [],
      "stateMutability": "nonpayable",
      "type": "function"
    },
    {
      "inputs": [
        {
          "internalType": "address",
          "name": "from",
          "type": "address"
        },
        {
          "internalType": "address",
          "name": "to",
          "type": "address"
        },
        {
          "internalType": "uint256",
          "name": "tokenId",
          "type": "uint256"
        },
        {
          "internalType": "bytes",
          "name": "_data",
          "type": "bytes"
        }
      ],
      "name": "safeTransferFrom",
      "outputs": [],
      "stateMutability": "nonpayable",
      "type": "function"
    },
    {
      "inputs": [
        {
          "internalType": "address",
          "name": "operator",
          "type": "address"
        },
        {
          "internalType": "bool",
          "name": "approved",
          "type": "bool"
        }
      ],
      "name": "setApprovalForAll",
      "outputs": [],
      "stateMutability": "nonpayable",
      "type": "function"
    },
    {
      "inputs": [
        {
          "internalType": "bytes4",
          "name": "interfaceId",
          "type": "bytes4"
        }
      ],
      "name": "supportsInterface",
      "outputs": [
        {
          "internalType": "bool",
          "name": "",
          "type": "bool"
        }
      ],
      "stateMutability": "view",
      "type": "function",
      "constant": true
    },
    {
      "inputs": [],
      "name": "symbol",
      "outputs": [
        {
          "internalType": "string",
          "name": "",
          "type": "string"
        }
      ],
      "stateMutability": "view",
      "type": "function",
      "constant": true
    },
    {
      "inputs": [
        {
          "internalType": "uint256",
          "name": "index",
          "type": "uint256"
        }
      ],
      "name": "tokenByIndex",
      "outputs": [
        {
          "internalType": "uint256",
          "name": "",
          "type": "uint256"
        }
      ],
      "stateMutability": "view",
      "type": "function",
      "constant": true
    },
    {
      "inputs": [
        {
          "internalType": "address",
          "name": "owner",
          "type": "address"
        },
        {
          "internalType": "uint256",
          "name": "index",
          "type": "uint256"
        }
      ],
      "name": "tokenOfOwnerByIndex",
      "outputs": [
        {
          "internalType": "uint256",
          "name": "",
          "type": "uint256"
        }
      ],
      "stateMutability": "view",
      "type": "function",
      "constant": true
    },
    {
      "inputs": [
        {
          "internalType": "uint256",
          "name": "tokenId",
          "type": "uint256"
        }
      ],
      "name": "tokenURI",
      "outputs": [
        {
          "internalType": "string",
          "name": "",
          "type": "string"
        }
      ],
      "stateMutability": "view",
      "type": "function",
      "constant": true
    },
    {
      "inputs": [],
      "name": "totalSupply",
      "outputs": [
        {
          "internalType": "uint256",
          "name": "",
          "type": "uint256"
        }
      ],
      "stateMutability": "view",
      "type": "function",
      "constant": true
    },
    {
      "inputs": [
        {
          "internalType": "address",
          "name": "from",
          "type": "address"
        },
        {
          "internalType": "address",
          "name": "to",
          "type": "address"
        },
        {
          "internalType": "uint256",
          "name": "tokenId",
          "type": "uint256"
        }
      ],
      "name": "transferFrom",
      "outputs": [],
      "stateMutability": "nonpayable",
      "type": "function"
    },
    {
      "inputs": [],
      "name": "mintCave",
      "outputs": [],
      "stateMutability": "nonpayable",
      "type": "function"
    },
    {
      "inputs": [
        {
          "internalType": "uint256",
          "name": "_caveId",
          "type": "uint256"
        }
      ],
      "name": "getCaveDetails",
      "outputs": [
        {
          "components": [
            {
              "internalType": "uint8",
              "name": "holesCount",
              "type": "uint8"
            },
            {
              "internalType": "uint8",
              "name": "materialsCount",
              "type": "uint8"
            }
          ],
          "internalType": "struct Caves.Cave",
          "name": "",
          "type": "tuple"
        }
      ],
      "stateMutability": "view",
      "type": "function",
      "constant": true
    },
    {
      "inputs": [
        {
          "internalType": "uint256",
          "name": "_caveId",
          "type": "uint256"
        },
        {
          "internalType": "uint8",
          "name": "_level",
          "type": "uint8"
        }
      ],
      "name": "extendCave",
      "outputs": [],
      "stateMutability": "nonpayable",
      "type": "function"
    },
    {
      "inputs": [
        {
          "internalType": "uint256",
          "name": "_caveId",
          "type": "uint256"
        }
      ],
      "name": "getCaveOwner",
      "outputs": [
        {
          "internalType": "address",
          "name": "",
          "type": "address"
        }
      ],
      "stateMutability": "view",
      "type": "function",
      "constant": true
    },
    {
      "inputs": [
        {
          "internalType": "uint256",
          "name": "_caveId",
          "type": "uint256"
        }
      ],
      "name": "getCaveMetaData",
      "outputs": [
        {
          "internalType": "string",
          "name": "",
          "type": "string"
        }
      ],
      "stateMutability": "view",
      "type": "function",
      "constant": true
    },
    {
      "inputs": [],
      "name": "getNumberOfCavesMinted",
      "outputs": [
        {
          "internalType": "uint256",
          "name": "",
          "type": "uint256"
        }
      ],
      "stateMutability": "view",
      "type": "function",
      "constant": true
    }
  ],
  "bytecode": "0x60806040526000600a553480156200001657600080fd5b50604080518082018252600e81526d10d0559154d7d0d3d395149050d560921b6020808301919091528251808401909352600383526221a1ab60e91b9083015290620000696301ffc9a760e01b62000104565b81516200007e90600690602085019062000178565b5080516200009490600790602084019062000178565b50620000a76380ac58cd60e01b62000104565b620000b9635b5e139f60e01b62000104565b620000cb63780e9d6360e01b62000104565b505060408051808201909152600f81526e68747470733a2f2f4241534555524960881b6020820152620000fe906200015f565b62000292565b6001600160e01b031980821614156200013a5760405162461bcd60e51b815260040162000131906200021e565b60405180910390fd5b6001600160e01b0319166000908152602081905260409020805460ff19166001179055565b80516200017490600990602084019062000178565b5050565b828054620001869062000255565b90600052602060002090601f016020900481019282620001aa5760008555620001f5565b82601f10620001c557805160ff1916838001178555620001f5565b82800160010185558215620001f5579182015b82811115620001f5578251825591602001919060010190620001d8565b506200020392915062000207565b5090565b5b8082111562000203576000815560010162000208565b6020808252601c908201527f4552433136353a20696e76616c696420696e7465726661636520696400000000604082015260600190565b6002810460018216806200026a57607f821691505b602082108114156200028c57634e487b7160e01b600052602260045260246000fd5b50919050565b6120d980620002a26000396000f3fe608060405234801561001057600080fd5b506004361061018e5760003560e01c80634f6ccce7116100de578063b88d4fde11610097578063dcb5ef9511610071578063dcb5ef9514610358578063e10919e61461036b578063e45985fa14610373578063e985e9c51461037b5761018e565b8063b88d4fde14610311578063c87b56dd14610324578063c8a8ec5b146103375761018e565b80634f6ccce7146102b55780636352211e146102c85780636c0360eb146102db57806370a08231146102e357806395d89b41146102f6578063a22cb465146102fe5761018e565b806318160ddd1161014b5780632a7a3b00116101255780632a7a3b00146102695780632f745c591461027c57806342842e0e1461028f5780634a350163146102a25761018e565b806318160ddd1461022e57806323b872dd146102365780632792e31f146102495761018e565b806301ffc9a71461019357806306fdde03146101bc578063081812fc146101d157806308e0d7d4146101f1578063095ea7b3146102065780630ffde58f1461021b575b600080fd5b6101a66101a1366004611827565b61038e565b6040516101b391906119ae565b60405180910390f35b6101c46103b1565b6040516101b391906119b9565b6101e46101df3660046118a5565b610443565b6040516101b3919061195d565b6101f961048f565b6040516101b39190611e92565b6102196102143660046117fe565b61049e565b005b6101c46102293660046118a5565b610536565b6101f9610547565b610219610244366004611710565b610553565b61025c6102573660046118a5565b61058b565b6040516101b39190611e75565b6101e46102773660046118a5565b6105c4565b6101f961028a3660046117fe565b6105cf565b61021961029d366004611710565b6105f8565b6101a66102b036600461185f565b610613565b6101f96102c33660046118a5565b610633565b6101e46102d63660046118a5565b610649565b6101c4610671565b6101f96102f13660046116c4565b610680565b6101c46106c9565b61021961030c3660046117c4565b6106d8565b61021961031f36600461174b565b6107a6565b6101c46103323660046118a5565b6107e5565b61034a6103453660046118a5565b610928565b6040516101b3929190611e9b565b6102196103663660046118bd565b610946565b610219610a01565b6101f9610b22565b6101a66103893660046116de565b610b28565b6001600160e01b0319811660009081526020819052604090205460ff165b919050565b6060600680546103c090611f83565b80601f01602080910402602001604051908101604052809291908181526020018280546103ec90611f83565b80156104395780601f1061040e57610100808354040283529160200191610439565b820191906000526020600020905b81548152906001019060200180831161041c57829003601f168201915b5050505050905090565b600061044e82610b56565b6104735760405162461bcd60e51b815260040161046a90611c30565b60405180910390fd5b506000908152600460205260409020546001600160a01b031690565b6000610499610547565b905090565b60006104a982610649565b9050806001600160a01b0316836001600160a01b031614156104dd5760405162461bcd60e51b815260040161046a90611dac565b806001600160a01b03166104ef610b63565b6001600160a01b0316148061050b575061050b81610389610b63565b6105275760405162461bcd60e51b815260040161046a90611b12565b6105318383610b67565b505050565b6060610541826107e5565b92915050565b60006104996002610bd5565b61056461055e610b63565b82610be0565b6105805760405162461bcd60e51b815260040161046a90611ded565b610531838383610c65565b61059361158d565b506000908152600b602090815260409182902082518084019093525460ff8082168452610100909104169082015290565b600061054182610649565b6001600160a01b03821660009081526001602052604081206105f19083610d73565b9392505050565b610531838383604051806020016040528060008152506107a6565b8051602081830181018051600c8252928201919093012091525460ff1681565b600080610641600284610d7f565b509392505050565b60006105418260405180606001604052806029815260200161207b6029913960029190610d9b565b6060600980546103c090611f83565b60006001600160a01b0382166106a85760405162461bcd60e51b815260040161046a90611b6f565b6001600160a01b038216600090815260016020526040902061054190610bd5565b6060600780546103c090611f83565b6106e0610b63565b6001600160a01b0316826001600160a01b031614156107115760405162461bcd60e51b815260040161046a90611adb565b806005600061071e610b63565b6001600160a01b03908116825260208083019390935260409182016000908120918716808252919093529120805460ff191692151592909217909155610762610b63565b6001600160a01b03167f17307eab39ab6107e8899845ad3d59bd9653f200f220920489ca2b5937696c318360405161079a91906119ae565b60405180910390a35050565b6107b76107b1610b63565b83610be0565b6107d35760405162461bcd60e51b815260040161046a90611ded565b6107df84848484610da8565b50505050565b60606107f082610b56565b61080c5760405162461bcd60e51b815260040161046a90611d11565b6000828152600860205260408120805461082590611f83565b80601f016020809104026020016040519081016040528092919081815260200182805461085190611f83565b801561089e5780601f106108735761010080835404028352916020019161089e565b820191906000526020600020905b81548152906001019060200180831161088157829003601f168201915b5050505050905060006108af610671565b90508051600014156108c3575090506103ac565b8151156108f55780826040516020016108dd92919061192e565b604051602081830303815290604052925050506103ac565b806108ff85610ddb565b60405160200161091092919061192e565b60405160208183030381529060405292505050919050565b600b6020526000908152604090205460ff8082169161010090041682565b60006109518361058b565b905061095c82610f0f565b8151829061096b908390611ec7565b60ff1690525061097d60066014611f00565b60ff16816000015160ff16111561099357600080fd5b6001816020018181516109a69190611ec7565b60ff908116909152602083015160149116111590506109c457600080fd5b6000928352600b6020908152604090932081518154929094015160ff1990921660ff9485161761ff00191661010094909216939093021790915550565b33610a0b57600080fd5b600a54610a1781610b56565b15610a2157600080fd5b6000610a2b610671565b610a3483610ddb565b604051602001610a4592919061192e565b6040516020818303038152906040529050600c81604051610a669190611912565b9081526040519081900360200190205460ff1615610a8357600080fd5b610a8d3383610f12565b610a978282610fd6565b600a8054906000610aa783611fbe565b91905055506001600c82604051610abe9190611912565b908152604080519182900360209081018320805494151560ff199586161790558282018252600183526000838201818152968152600b9091522090518154945160ff9081166101000261ff0019929091169590931694909417939093161790915550565b600a5481565b6001600160a01b03918216600090815260056020908152604080832093909416825291909152205460ff1690565b600061054160028361101a565b3390565b600081815260046020526040902080546001600160a01b0319166001600160a01b0384169081179091558190610b9c82610649565b6001600160a01b03167f8c5be1e5ebec7d5bd14f71427d1e84f3dd0314c0f7b2291e5b200ac8c7c3b92560405160405180910390a45050565b600061054182611026565b6000610beb82610b56565b610c075760405162461bcd60e51b815260040161046a90611d60565b6000610c1283610649565b9050806001600160a01b0316846001600160a01b03161480610c4d5750836001600160a01b0316610c4284610443565b6001600160a01b0316145b80610c5d5750610c5d8185610b28565b949350505050565b826001600160a01b0316610c7882610649565b6001600160a01b031614610c9e5760405162461bcd60e51b815260040161046a90611cc8565b6001600160a01b038216610cc45760405162461bcd60e51b815260040161046a90611a97565b610ccf838383610531565b610cda600082610b67565b6001600160a01b0383166000908152600160205260409020610cfc908261102a565b506001600160a01b0382166000908152600160205260409020610d1f9082611036565b50610d2c60028284611042565b5080826001600160a01b0316846001600160a01b03167fddf252ad1be2c89b69c2b068fc378daa952ba7f163c4a11628f55a4df523b3ef60405160405180910390a4505050565b60006105f18383611058565b6000808080610d8e86866110b1565b9097909650945050505050565b6000610c5d848484611121565b610db3848484610c65565b610dbf84848484611198565b6107df5760405162461bcd60e51b815260040161046a90611a0e565b606081610e0057506040805180820190915260018152600360fc1b60208201526103ac565b8160005b8115610e2a5780610e1481611fbe565b9150610e239050600a83611eec565b9150610e04565b60008167ffffffffffffffff811115610e5357634e487b7160e01b600052604160045260246000fd5b6040519080825280601f01601f191660200182016040528015610e7d576020820181803683370190505b5090506000610e8d600184611f29565b90508593505b8315610f0657610ea4600a85611fd9565b610eaf906030611eaf565b60f81b8282610ebd81611f6c565b935081518110610edd57634e487b7160e01b600052603260045260246000fd5b60200101906001600160f81b031916908160001a905350610eff600a85611eec565b9350610e93565b50949350505050565b90565b6001600160a01b038216610f385760405162461bcd60e51b815260040161046a90611bfb565b610f4181610b56565b15610f5e5760405162461bcd60e51b815260040161046a90611a60565b610f6a60008383610531565b6001600160a01b0382166000908152600160205260409020610f8c9082611036565b50610f9960028284611042565b5060405181906001600160a01b038416906000907fddf252ad1be2c89b69c2b068fc378daa952ba7f163c4a11628f55a4df523b3ef908290a45050565b610fdf82610b56565b610ffb5760405162461bcd60e51b815260040161046a90611c7c565b60008281526008602090815260409091208251610531928401906115a4565b60006105f18383611277565b5490565b60006105f1838361128f565b60006105f183836113ac565b6000610c5d84846001600160a01b0385166113f6565b8154600090821061107b5760405162461bcd60e51b815260040161046a906119cc565b82600001828154811061109e57634e487b7160e01b600052603260045260246000fd5b9060005260206000200154905092915050565b8154600090819083106110d65760405162461bcd60e51b815260040161046a90611bb9565b60008460000184815481106110fb57634e487b7160e01b600052603260045260246000fd5b906000526020600020906002020190508060000154816001015492509250509250929050565b600082815260018401602052604081205482816111515760405162461bcd60e51b815260040161046a91906119b9565b508461115e600183611f29565b8154811061117c57634e487b7160e01b600052603260045260246000fd5b9060005260206000209060020201600101549150509392505050565b60006111ac846001600160a01b03166114a5565b6111b857506001610c5d565b6000611240630a85bd0160e11b6111cd610b63565b8887876040516024016111e39493929190611971565b604051602081830303815290604052906001600160e01b0319166020820180516001600160e01b038381831617835250505050604051806060016040528060328152602001612049603291396001600160a01b03881691906114ab565b90506000818060200190518101906112589190611843565b6001600160e01b031916630a85bd0160e11b1492505050949350505050565b60009081526001919091016020526040902054151590565b600081815260018301602052604081205480156113a25760006112b3600183611f29565b85549091506000906112c790600190611f29565b905060008660000182815481106112ee57634e487b7160e01b600052603260045260246000fd5b906000526020600020015490508087600001848154811061131f57634e487b7160e01b600052603260045260246000fd5b600091825260209091200155611336836001611eaf565b6000828152600189016020526040902055865487908061136657634e487b7160e01b600052603160045260246000fd5b60019003818190600052602060002001600090559055866001016000878152602001908152602001600020600090556001945050505050610541565b6000915050610541565b60006113b88383611277565b6113ee57508154600181810184556000848152602080822090930184905584548482528286019093526040902091909155610541565b506000610541565b60008281526001840160205260408120548061145b5750506040805180820182528381526020808201848152865460018181018955600089815284812095516002909302909501918255915190820155865486845281880190925292909120556105f1565b8285611468600184611f29565b8154811061148657634e487b7160e01b600052603260045260246000fd5b90600052602060002090600202016001018190555060009150506105f1565b3b151590565b6060610c5d8484600085856114bf856114a5565b6114db5760405162461bcd60e51b815260040161046a90611e3e565b600080866001600160a01b031685876040516114f79190611912565b60006040518083038185875af1925050503d8060008114611534576040519150601f19603f3d011682016040523d82523d6000602084013e611539565b606091505b5091509150611549828286611554565b979650505050505050565b606083156115635750816105f1565b8251156115735782518084602001fd5b8160405162461bcd60e51b815260040161046a91906119b9565b604080518082019091526000808252602082015290565b8280546115b090611f83565b90600052602060002090601f0160209004810192826115d25760008555611618565b82601f106115eb57805160ff1916838001178555611618565b82800160010185558215611618579182015b828111156116185782518255916020019190600101906115fd565b50611624929150611628565b5090565b5b808211156116245760008155600101611629565b600067ffffffffffffffff8084111561165857611658612019565b604051601f8501601f19168101602001828111828210171561167c5761167c612019565b60405284815291508183850186101561169457600080fd5b8484602083013760006020868301015250509392505050565b80356001600160a01b03811681146103ac57600080fd5b6000602082840312156116d5578081fd5b6105f1826116ad565b600080604083850312156116f0578081fd5b6116f9836116ad565b9150611707602084016116ad565b90509250929050565b600080600060608486031215611724578081fd5b61172d846116ad565b925061173b602085016116ad565b9150604084013590509250925092565b60008060008060808587031215611760578081fd5b611769856116ad565b9350611777602086016116ad565b925060408501359150606085013567ffffffffffffffff811115611799578182fd5b8501601f810187136117a9578182fd5b6117b88782356020840161163d565b91505092959194509250565b600080604083850312156117d6578182fd5b6117df836116ad565b9150602083013580151581146117f3578182fd5b809150509250929050565b60008060408385031215611810578182fd5b611819836116ad565b946020939093013593505050565b600060208284031215611838578081fd5b81356105f18161202f565b600060208284031215611854578081fd5b81516105f18161202f565b600060208284031215611870578081fd5b813567ffffffffffffffff811115611886578182fd5b8201601f81018413611896578182fd5b610c5d8482356020840161163d565b6000602082840312156118b6578081fd5b5035919050565b600080604083850312156118cf578182fd5b82359150602083013560ff811681146117f3578182fd5b600081518084526118fe816020860160208601611f40565b601f01601f19169290920160200192915050565b60008251611924818460208701611f40565b9190910192915050565b60008351611940818460208801611f40565b835190830190611954818360208801611f40565b01949350505050565b6001600160a01b0391909116815260200190565b6001600160a01b03858116825284166020820152604081018390526080606082018190526000906119a4908301846118e6565b9695505050505050565b901515815260200190565b6000602082526105f160208301846118e6565b60208082526022908201527f456e756d657261626c655365743a20696e646578206f7574206f6620626f756e604082015261647360f01b606082015260800190565b60208082526032908201527f4552433732313a207472616e7366657220746f206e6f6e20455243373231526560408201527131b2b4bb32b91034b6b83632b6b2b73a32b960711b606082015260800190565b6020808252601c908201527f4552433732313a20746f6b656e20616c7265616479206d696e74656400000000604082015260600190565b60208082526024908201527f4552433732313a207472616e7366657220746f20746865207a65726f206164646040820152637265737360e01b606082015260800190565b60208082526019908201527f4552433732313a20617070726f766520746f2063616c6c657200000000000000604082015260600190565b60208082526038908201527f4552433732313a20617070726f76652063616c6c6572206973206e6f74206f7760408201527f6e6572206e6f7220617070726f76656420666f7220616c6c0000000000000000606082015260800190565b6020808252602a908201527f4552433732313a2062616c616e636520717565727920666f7220746865207a65604082015269726f206164647265737360b01b606082015260800190565b60208082526022908201527f456e756d657261626c654d61703a20696e646578206f7574206f6620626f756e604082015261647360f01b606082015260800190565b6020808252818101527f4552433732313a206d696e7420746f20746865207a65726f2061646472657373604082015260600190565b6020808252602c908201527f4552433732313a20617070726f76656420717565727920666f72206e6f6e657860408201526b34b9ba32b73a103a37b5b2b760a11b606082015260800190565b6020808252602c908201527f4552433732314d657461646174613a2055524920736574206f66206e6f6e657860408201526b34b9ba32b73a103a37b5b2b760a11b606082015260800190565b60208082526029908201527f4552433732313a207472616e73666572206f6620746f6b656e2074686174206960408201526839903737ba1037bbb760b91b606082015260800190565b6020808252602f908201527f4552433732314d657461646174613a2055524920717565727920666f72206e6f60408201526e3732bc34b9ba32b73a103a37b5b2b760891b606082015260800190565b6020808252602c908201527f4245503732313a206f70657261746f7220717565727920666f72206e6f6e657860408201526b34b9ba32b73a103a37b5b2b760a11b606082015260800190565b60208082526021908201527f4552433732313a20617070726f76616c20746f2063757272656e74206f776e656040820152603960f91b606082015260800190565b60208082526031908201527f4552433732313a207472616e736665722063616c6c6572206973206e6f74206f6040820152701ddb995c881b9bdc88185c1c1c9bdd9959607a1b606082015260800190565b6020808252601d908201527f416464726573733a2063616c6c20746f206e6f6e2d636f6e7472616374000000604082015260600190565b815160ff9081168252602092830151169181019190915260400190565b90815260200190565b60ff92831681529116602082015260400190565b60008219821115611ec257611ec2611fed565b500190565b600060ff821660ff84168060ff03821115611ee457611ee4611fed565b019392505050565b600082611efb57611efb612003565b500490565b600060ff821660ff84168160ff0481118215151615611f2157611f21611fed565b029392505050565b600082821015611f3b57611f3b611fed565b500390565b60005b83811015611f5b578181015183820152602001611f43565b838111156107df5750506000910152565b600081611f7b57611f7b611fed565b506000190190565b600281046001821680611f9757607f821691505b60208210811415611fb857634e487b7160e01b600052602260045260246000fd5b50919050565b6000600019821415611fd257611fd2611fed565b5060010190565b600082611fe857611fe8612003565b500690565b634e487b7160e01b600052601160045260246000fd5b634e487b7160e01b600052601260045260246000fd5b634e487b7160e01b600052604160045260246000fd5b6001600160e01b03198116811461204557600080fd5b5056fe4552433732313a207472616e7366657220746f206e6f6e20455243373231526563656976657220696d706c656d656e7465724552433732313a206f776e657220717565727920666f72206e6f6e6578697374656e7420746f6b656ea2646970667358221220ebbd38e2db68f364304d0923401aa551d5164d25457f972291bf5e2d1cd310f564736f6c63430008000033",
  "immutableReferences": {},
  "source": "// SPDX-License-Identifier: MIT\n\npragma solidity >=0.7.0 <0.9.0;\npragma abicoder v2;\n\nimport \"./BEP721_CWOLFGAME.sol\";\n\ncontract Caves is BEP721 {\n\n    uint8 private constant WOOD = 1;\n    uint8 private constant BRONZE = 2;\n    uint8 private constant SILVER = 3;\n    uint8 private constant GOLD = 4;\n    uint8 private constant PLATINUM = 5;\n    uint8 private constant DIAMOND = 6;\n\n    struct Cave {\n        uint8 holesCount;\n        uint8 materialsCount;\n    }\n\n    uint256 public cavesCount = 0;\n    mapping(uint256 => Cave) public allCaves;\n    mapping(string => bool) public caveURIExists;\n    constructor() BEP721(\"CAVES_CONTRACT\", \"CCV\") {\n        _setBaseURI(\"https://BASEURI\");\n    }\n    \n    function setURIPrefix(string memory _baseURI) internal {\n        _setBaseURI(_baseURI);\n    }\n\n    function mintCave() external {\n        require(msg.sender != address(0));\n        \n        uint256 tokenId = cavesCount;\n        require(!_exists(tokenId));\n\n        string memory tokenURI = string(abi.encodePacked(baseURI(), Strings.toString(tokenId)));\n        require(!caveURIExists[tokenURI]);\n\n        _mint(msg.sender, tokenId);\n        _setTokenURI(tokenId, tokenURI);\n\n        cavesCount++;\n        caveURIExists[tokenURI] = true;\n\n        Cave memory newCave = Cave(\n            1, //initial holes_count of current cave\n            0 //initial materials_count used to make current cave\n        );\n        allCaves[tokenId] = newCave;\n    }\n\n    function getCaveDetails(uint256 _caveId) public view returns (Cave memory) {\n        return allCaves[_caveId];\n    }\n\n    function extendCave(uint256 _caveId, uint8 _level) public {\n        Cave memory _cave = getCaveDetails(_caveId);\n        _cave.holesCount += increaseHoles(_level);\n        require(_cave.holesCount <= DIAMOND*20);\n        \n        _cave.materialsCount += 1;\n        require(_cave.materialsCount <= 20);\n\n        allCaves[_caveId] = _cave;\n    }\n\n    function increaseHoles(uint8 _level) internal pure returns(uint8) {\n        return _level;\n    }\n\n    function decreaseHoles(uint8 _level) internal pure returns(uint8) {\n        return _level;\n    }\n\n    function getCaveOwner(uint256 _caveId) public view returns(address) {\n        return ownerOf(_caveId);\n    }\n\n    function getCaveMetaData(uint256 _caveId) public view returns(string memory) {\n        return tokenURI(_caveId);\n    }\n\n    function getNumberOfCavesMinted() public view returns(uint256) {\n        return totalSupply();\n    }\n}",
  "sourcePath": "E:\\cwolf\\smartcontracts_prod\\contracts\\Caves.sol",
  "compiler": {
    "name": "solc",
    "version": "0.8.0+commit.c7dfd78e.Emscripten.clang"
  },
  "schemaVersion": "3.4.3",
  "updatedAt": "2021-11-14T03:24:17.305Z",
  "networkType": "ethereum",
  "devdoc": {
    "kind": "dev",
    "methods": {
      "approve(address,uint256)": {
        "details": "See {IERC721-approve}."
      },
      "balanceOf(address)": {
        "details": "See {IERC721-balanceOf}."
      },
      "baseURI()": {
        "details": "Returns the base URI set via {_setBaseURI}. This will be automatically added as a prefix in {tokenURI} to each token's URI, or to the token ID if no specific URI is set for that token ID."
      },
      "getApproved(uint256)": {
        "details": "See {IERC721-getApproved}."
      },
      "isApprovedForAll(address,address)": {
        "details": "See {IERC721-isApprovedForAll}."
      },
      "name()": {
        "details": "See {IERC721Metadata-name}."
      },
      "ownerOf(uint256)": {
        "details": "See {IERC721-ownerOf}."
      },
      "safeTransferFrom(address,address,uint256)": {
        "details": "See {IERC721-safeTransferFrom}."
      },
      "safeTransferFrom(address,address,uint256,bytes)": {
        "details": "See {IERC721-safeTransferFrom}."
      },
      "setApprovalForAll(address,bool)": {
        "details": "See {IERC721-setApprovalForAll}."
      },
      "supportsInterface(bytes4)": {
        "details": "See {IERC165-supportsInterface}. Time complexity O(1), guaranteed to always use less than 30 000 gas."
      },
      "symbol()": {
        "details": "See {IERC721Metadata-symbol}."
      },
      "tokenByIndex(uint256)": {
        "details": "See {IERC721Enumerable-tokenByIndex}."
      },
      "tokenOfOwnerByIndex(address,uint256)": {
        "details": "See {IERC721Enumerable-tokenOfOwnerByIndex}."
      },
      "tokenURI(uint256)": {
        "details": "See {IERC721Metadata-tokenURI}."
      },
      "totalSupply()": {
        "details": "See {IERC721Enumerable-totalSupply}."
      },
      "transferFrom(address,address,uint256)": {
        "details": "See {IERC721-transferFrom}."
      }
    },
    "version": 1
  },
  "userdoc": {
    "kind": "user",
    "methods": {},
    "version": 1
  }
}