{
  "contractName": "Wolves",
  "abi": [
    {
      "inputs": [],
      "stateMutability": "nonpayable",
      "type": "constructor"
    },
    {
      "anonymous": false,
      "inputs": [
        {
          "indexed": true,
          "internalType": "address",
          "name": "owner",
          "type": "address"
        },
        {
          "indexed": true,
          "internalType": "address",
          "name": "approved",
          "type": "address"
        },
        {
          "indexed": true,
          "internalType": "uint256",
          "name": "tokenId",
          "type": "uint256"
        }
      ],
      "name": "Approval",
      "type": "event"
    },
    {
      "anonymous": false,
      "inputs": [
        {
          "indexed": true,
          "internalType": "address",
          "name": "owner",
          "type": "address"
        },
        {
          "indexed": true,
          "internalType": "address",
          "name": "operator",
          "type": "address"
        },
        {
          "indexed": false,
          "internalType": "bool",
          "name": "approved",
          "type": "bool"
        }
      ],
      "name": "ApprovalForAll",
      "type": "event"
    },
    {
      "anonymous": false,
      "inputs": [
        {
          "indexed": true,
          "internalType": "address",
          "name": "from",
          "type": "address"
        },
        {
          "indexed": true,
          "internalType": "address",
          "name": "to",
          "type": "address"
        },
        {
          "indexed": true,
          "internalType": "uint256",
          "name": "tokenId",
          "type": "uint256"
        }
      ],
      "name": "Transfer",
      "type": "event"
    },
    {
      "inputs": [
        {
          "internalType": "uint256",
          "name": "",
          "type": "uint256"
        }
      ],
      "name": "allWolves",
      "outputs": [
        {
          "internalType": "uint8",
          "name": "race",
          "type": "uint8"
        },
        {
          "internalType": "bool",
          "name": "gender",
          "type": "bool"
        },
        {
          "internalType": "uint8",
          "name": "level",
          "type": "uint8"
        },
        {
          "internalType": "uint256",
          "name": "attack",
          "type": "uint256"
        },
        {
          "internalType": "uint256",
          "name": "defense",
          "type": "uint256"
        },
        {
          "internalType": "uint256",
          "name": "price",
          "type": "uint256"
        }
      ],
      "stateMutability": "view",
      "type": "function",
      "constant": true
    },
    {
      "inputs": [
        {
          "internalType": "address",
          "name": "to",
          "type": "address"
        },
        {
          "internalType": "uint256",
          "name": "tokenId",
          "type": "uint256"
        }
      ],
      "name": "approve",
      "outputs": [],
      "stateMutability": "nonpayable",
      "type": "function"
    },
    {
      "inputs": [
        {
          "internalType": "address",
          "name": "owner",
          "type": "address"
        }
      ],
      "name": "balanceOf",
      "outputs": [
        {
          "internalType": "uint256",
          "name": "",
          "type": "uint256"
        }
      ],
      "stateMutability": "view",
      "type": "function",
      "constant": true
    },
    {
      "inputs": [],
      "name": "baseURI",
      "outputs": [
        {
          "internalType": "string",
          "name": "",
          "type": "string"
        }
      ],
      "stateMutability": "view",
      "type": "function",
      "constant": true
    },
    {
      "inputs": [
        {
          "internalType": "uint256",
          "name": "tokenId",
          "type": "uint256"
        }
      ],
      "name": "getApproved",
      "outputs": [
        {
          "internalType": "address",
          "name": "",
          "type": "address"
        }
      ],
      "stateMutability": "view",
      "type": "function",
      "constant": true
    },
    {
      "inputs": [
        {
          "internalType": "address",
          "name": "owner",
          "type": "address"
        },
        {
          "internalType": "address",
          "name": "operator",
          "type": "address"
        }
      ],
      "name": "isApprovedForAll",
      "outputs": [
        {
          "internalType": "bool",
          "name": "",
          "type": "bool"
        }
      ],
      "stateMutability": "view",
      "type": "function",
      "constant": true
    },
    {
      "inputs": [],
      "name": "name",
      "outputs": [
        {
          "internalType": "string",
          "name": "",
          "type": "string"
        }
      ],
      "stateMutability": "view",
      "type": "function",
      "constant": true
    },
    {
      "inputs": [
        {
          "internalType": "uint256",
          "name": "tokenId",
          "type": "uint256"
        }
      ],
      "name": "ownerOf",
      "outputs": [
        {
          "internalType": "address",
          "name": "",
          "type": "address"
        }
      ],
      "stateMutability": "view",
      "type": "function",
      "constant": true
    },
    {
      "inputs": [
        {
          "internalType": "address",
          "name": "from",
          "type": "address"
        },
        {
          "internalType": "address",
          "name": "to",
          "type": "address"
        },
        {
          "internalType": "uint256",
          "name": "tokenId",
          "type": "uint256"
        }
      ],
      "name": "safeTransferFrom",
      "outputs": [],
      "stateMutability": "nonpayable",
      "type": "function"
    },
    {
      "inputs": [
        {
          "internalType": "address",
          "name": "from",
          "type": "address"
        },
        {
          "internalType": "address",
          "name": "to",
          "type": "address"
        },
        {
          "internalType": "uint256",
          "name": "tokenId",
          "type": "uint256"
        },
        {
          "internalType": "bytes",
          "name": "_data",
          "type": "bytes"
        }
      ],
      "name": "safeTransferFrom",
      "outputs": [],
      "stateMutability": "nonpayable",
      "type": "function"
    },
    {
      "inputs": [
        {
          "internalType": "address",
          "name": "operator",
          "type": "address"
        },
        {
          "internalType": "bool",
          "name": "approved",
          "type": "bool"
        }
      ],
      "name": "setApprovalForAll",
      "outputs": [],
      "stateMutability": "nonpayable",
      "type": "function"
    },
    {
      "inputs": [
        {
          "internalType": "bytes4",
          "name": "interfaceId",
          "type": "bytes4"
        }
      ],
      "name": "supportsInterface",
      "outputs": [
        {
          "internalType": "bool",
          "name": "",
          "type": "bool"
        }
      ],
      "stateMutability": "view",
      "type": "function",
      "constant": true
    },
    {
      "inputs": [],
      "name": "symbol",
      "outputs": [
        {
          "internalType": "string",
          "name": "",
          "type": "string"
        }
      ],
      "stateMutability": "view",
      "type": "function",
      "constant": true
    },
    {
      "inputs": [
        {
          "internalType": "uint256",
          "name": "index",
          "type": "uint256"
        }
      ],
      "name": "tokenByIndex",
      "outputs": [
        {
          "internalType": "uint256",
          "name": "",
          "type": "uint256"
        }
      ],
      "stateMutability": "view",
      "type": "function",
      "constant": true
    },
    {
      "inputs": [
        {
          "internalType": "address",
          "name": "owner",
          "type": "address"
        },
        {
          "internalType": "uint256",
          "name": "index",
          "type": "uint256"
        }
      ],
      "name": "tokenOfOwnerByIndex",
      "outputs": [
        {
          "internalType": "uint256",
          "name": "",
          "type": "uint256"
        }
      ],
      "stateMutability": "view",
      "type": "function",
      "constant": true
    },
    {
      "inputs": [
        {
          "internalType": "uint256",
          "name": "tokenId",
          "type": "uint256"
        }
      ],
      "name": "tokenURI",
      "outputs": [
        {
          "internalType": "string",
          "name": "",
          "type": "string"
        }
      ],
      "stateMutability": "view",
      "type": "function",
      "constant": true
    },
    {
      "inputs": [],
      "name": "totalSupply",
      "outputs": [
        {
          "internalType": "uint256",
          "name": "",
          "type": "uint256"
        }
      ],
      "stateMutability": "view",
      "type": "function",
      "constant": true
    },
    {
      "inputs": [
        {
          "internalType": "address",
          "name": "from",
          "type": "address"
        },
        {
          "internalType": "address",
          "name": "to",
          "type": "address"
        },
        {
          "internalType": "uint256",
          "name": "tokenId",
          "type": "uint256"
        }
      ],
      "name": "transferFrom",
      "outputs": [],
      "stateMutability": "nonpayable",
      "type": "function"
    },
    {
      "inputs": [
        {
          "internalType": "string",
          "name": "",
          "type": "string"
        }
      ],
      "name": "wolfURIExists",
      "outputs": [
        {
          "internalType": "bool",
          "name": "",
          "type": "bool"
        }
      ],
      "stateMutability": "view",
      "type": "function",
      "constant": true
    },
    {
      "inputs": [],
      "name": "wolvesCount",
      "outputs": [
        {
          "internalType": "uint256",
          "name": "",
          "type": "uint256"
        }
      ],
      "stateMutability": "view",
      "type": "function",
      "constant": true
    },
    {
      "inputs": [
        {
          "internalType": "uint8",
          "name": "_level",
          "type": "uint8"
        }
      ],
      "name": "mintWolf",
      "outputs": [],
      "stateMutability": "nonpayable",
      "type": "function"
    },
    {
      "inputs": [
        {
          "internalType": "uint256",
          "name": "_wolfId",
          "type": "uint256"
        }
      ],
      "name": "isWolfExists",
      "outputs": [
        {
          "internalType": "bool",
          "name": "",
          "type": "bool"
        }
      ],
      "stateMutability": "view",
      "type": "function",
      "constant": true
    },
    {
      "inputs": [
        {
          "internalType": "uint256",
          "name": "_wolfId",
          "type": "uint256"
        }
      ],
      "name": "getWolfDetails",
      "outputs": [
        {
          "components": [
            {
              "internalType": "uint8",
              "name": "race",
              "type": "uint8"
            },
            {
              "internalType": "bool",
              "name": "gender",
              "type": "bool"
            },
            {
              "internalType": "uint8",
              "name": "level",
              "type": "uint8"
            },
            {
              "internalType": "uint256",
              "name": "attack",
              "type": "uint256"
            },
            {
              "internalType": "uint256",
              "name": "defense",
              "type": "uint256"
            },
            {
              "internalType": "uint256",
              "name": "price",
              "type": "uint256"
            }
          ],
          "internalType": "struct Wolves.Wolf",
          "name": "",
          "type": "tuple"
        }
      ],
      "stateMutability": "view",
      "type": "function",
      "constant": true
    },
    {
      "inputs": [
        {
          "internalType": "uint256",
          "name": "_wolfId",
          "type": "uint256"
        }
      ],
      "name": "getWolfMetaData",
      "outputs": [
        {
          "internalType": "string",
          "name": "",
          "type": "string"
        }
      ],
      "stateMutability": "view",
      "type": "function",
      "constant": true
    },
    {
      "inputs": [
        {
          "internalType": "uint256",
          "name": "_wolfId",
          "type": "uint256"
        }
      ],
      "name": "getWolfOwner",
      "outputs": [
        {
          "internalType": "address",
          "name": "",
          "type": "address"
        }
      ],
      "stateMutability": "view",
      "type": "function",
      "constant": true
    },
    {
      "inputs": [
        {
          "internalType": "address",
          "name": "user",
          "type": "address"
        }
      ],
      "name": "getAllWolvesForUser",
      "outputs": [
        {
          "internalType": "uint256[]",
          "name": "",
          "type": "uint256[]"
        }
      ],
      "stateMutability": "view",
      "type": "function",
      "constant": true
    },
    {
      "inputs": [],
      "name": "getNumberOfWolvesMinted",
      "outputs": [
        {
          "internalType": "uint256",
          "name": "",
          "type": "uint256"
        }
      ],
      "stateMutability": "view",
      "type": "function",
      "constant": true
    },
    {
      "inputs": [
        {
          "internalType": "address",
          "name": "_ownerAddress",
          "type": "address"
        }
      ],
      "name": "getTotalNumberOfWolvesOwnedByAnAddress",
      "outputs": [
        {
          "internalType": "uint256",
          "name": "",
          "type": "uint256"
        }
      ],
      "stateMutability": "view",
      "type": "function",
      "constant": true
    },
    {
      "inputs": [
        {
          "internalType": "uint256",
          "name": "_wolfId",
          "type": "uint256"
        },
        {
          "internalType": "uint256",
          "name": "_newPrice",
          "type": "uint256"
        }
      ],
      "name": "updateWolfPrice",
      "outputs": [],
      "stateMutability": "nonpayable",
      "type": "function"
    },
    {
      "inputs": [
        {
          "internalType": "uint256",
          "name": "tokenId",
          "type": "uint256"
        }
      ],
      "name": "burn",
      "outputs": [],
      "stateMutability": "nonpayable",
      "type": "function"
    }
  ],
  "bytecode": "0x60806040526000600a553480156200001657600080fd5b50604080518082018252600f81526e15d3d3159154d7d0d3d395149050d5608a1b6020808301919091528251808401909352600383526221aba360e91b90830152906200006a6301ffc9a760e01b620000fd565b81516200007f90600690602085019062000171565b5080516200009590600790602084019062000171565b50620000a86380ac58cd60e01b620000fd565b620000ba635b5e139f60e01b620000fd565b620000cc63780e9d6360e01b620000fd565b5050604080518082019091526007815266697066733a2f2f60c81b6020820152620000f79062000158565b6200028b565b6001600160e01b03198082161415620001335760405162461bcd60e51b81526004016200012a9062000217565b60405180910390fd5b6001600160e01b0319166000908152602081905260409020805460ff19166001179055565b80516200016d90600990602084019062000171565b5050565b8280546200017f906200024e565b90600052602060002090601f016020900481019282620001a35760008555620001ee565b82601f10620001be57805160ff1916838001178555620001ee565b82800160010185558215620001ee579182015b82811115620001ee578251825591602001919060010190620001d1565b50620001fc92915062000200565b5090565b5b80821115620001fc576000815560010162000201565b6020808252601c908201527f4552433136353a20696e76616c696420696e7465726661636520696400000000604082015260600190565b6002810460018216806200026357607f821691505b602082108114156200028557634e487b7160e01b600052602260045260246000fd5b50919050565b612b0c806200029b6000396000f3fe608060405234801561001057600080fd5b50600436106101da5760003560e01c806370a0823111610104578063b88d4fde116100a2578063d315e87811610071578063d315e878146103f4578063d47ac452146103fc578063d90d61971461040f578063e985e9c51461042f576101da565b8063b88d4fde14610396578063c0147588146103a9578063c2c5913b146103ce578063c87b56dd146103e1576101da565b806389976310116100de578063899763101461035557806395d89b4114610368578063a22cb46514610370578063ad88592d14610383576101da565b806370a082311461030f57806374c5c785146103225780637cb5375e14610342576101da565b80632f745c591161017c57806342966c681161014b57806342966c68146102ce5780634f6ccce7146102e15780636352211e146102f45780636c0360eb14610307576101da565b80632f745c591461028d578063356851fe146102a0578063376a233c146102a857806342842e0e146102bb576101da565b8063095ea7b3116101b8578063095ea7b31461023d57806318160ddd1461025257806323b872dd146102675780632ab9f6401461027a576101da565b806301ffc9a7146101df57806306fdde0314610208578063081812fc1461021d575b600080fd5b6101f26101ed366004612180565b610442565b6040516101ff919061238c565b60405180910390f35b610210610465565b6040516101ff9190612397565b61023061022b3660046121fe565b6104f7565b6040516101ff91906122f7565b61025061024b366004612157565b610543565b005b61025a6105db565b6040516101ff91906128d4565b610250610275366004612069565b6105ec565b61025a61028836600461201d565b610624565b61025a61029b366004612157565b610637565b61025a610662565b6102106102b63660046121fe565b610668565b6102506102c9366004612069565b610675565b6102506102dc3660046121fe565b610690565b61025a6102ef3660046121fe565b6106c3565b6102306103023660046121fe565b6106d9565b610210610701565b61025a61031d36600461201d565b610710565b61033561033036600461201d565b610759565b6040516101ff9190612348565b6102306103503660046121fe565b610866565b6101f26103633660046121b8565b610872565b610210610892565b61025061037e36600461211d565b6108a1565b610250610391366004612216565b61096f565b6102506103a43660046120a4565b610ae9565b6103bc6103b73660046121fe565b610b28565b6040516101ff969594939291906128dd565b6101f26103dc3660046121fe565b610b64565b6102106103ef3660046121fe565b610b70565b61025a610cb3565b61025061040a366004612237565b610cc4565b61042261041d3660046121fe565b610e8d565b6040516101ff9190612888565b6101f261043d366004612037565b610efb565b6001600160e01b0319811660009081526020819052604090205460ff165b919050565b606060068054610474906129bf565b80601f01602080910402602001604051908101604052809291908181526020018280546104a0906129bf565b80156104ed5780601f106104c2576101008083540402835291602001916104ed565b820191906000526020600020905b8154815290600101906020018083116104d057829003601f168201915b5050505050905090565b600061050282610f29565b6105275760405162461bcd60e51b815260040161051e9061260e565b60405180910390fd5b506000908152600460205260409020546001600160a01b031690565b600061054e826106d9565b9050806001600160a01b0316836001600160a01b031614156105825760405162461bcd60e51b815260040161051e906127bf565b806001600160a01b0316610594610f36565b6001600160a01b031614806105b057506105b08161043d610f36565b6105cc5760405162461bcd60e51b815260040161051e906124f0565b6105d68383610f3a565b505050565b60006105e76002610fa8565b905090565b6105fd6105f7610f36565b82610fb3565b6106195760405162461bcd60e51b815260040161051e90612800565b6105d6838383611038565b60008061063083610710565b9392505050565b6001600160a01b03821660009081526001602052604081206106599083611146565b90505b92915050565b600a5481565b6060600061063083610b70565b6105d683838360405180602001604052806000815250610ae9565b61069b6105f7610f36565b6106b75760405162461bcd60e51b815260040161051e9061273e565b6106c081611152565b50565b6000806106d1600284611218565b509392505050565b600061065c82604051806060016040528060298152602001612aae6029913960029190611234565b606060098054610474906129bf565b60006001600160a01b0382166107385760405162461bcd60e51b815260040161051e9061254d565b6001600160a01b038216600090815260016020526040902061065c90610fa8565b6060600061076683610710565b905080610783575050604080516000815260208101909152610460565b60008167ffffffffffffffff8111156107ac57634e487b7160e01b600052604160045260246000fd5b6040519080825280602002602001820160405280156107d5578160200160208202803683370190505b5090506000805b600a5481101561085457856001600160a01b03166107f9826106d9565b6001600160a01b03161415610842578083838151811061082957634e487b7160e01b600052603260045260246000fd5b60209081029190910101528161083e816129f4565b9250505b8061084c816129f4565b9150506107dc565b50819350505050610460565b50919050565b600080610630836106d9565b8051602081830181018051600c8252928201919093012091525460ff1681565b606060078054610474906129bf565b6108a9610f36565b6001600160a01b0316826001600160a01b031614156108da5760405162461bcd60e51b815260040161051e906124b9565b80600560006108e7610f36565b6001600160a01b03908116825260208083019390935260409182016000908120918716808252919093529120805460ff19169215159290921790915561092b610f36565b6001600160a01b03167f17307eab39ab6107e8899845ad3d59bd9653f200f220920489ca2b5937696c3183604051610963919061238c565b60405180910390a35050565b3361097957600080fd5b61098282610f29565b61098b57600080fd5b6000610996836106d9565b90506001600160a01b03811633146109ad57600080fd5b6000600b60008581526020019081526020016000206040518060c00160405290816000820160009054906101000a900460ff1660ff1660ff1681526020016000820160019054906101000a900460ff161515151581526020016000820160029054906101000a900460ff1660ff1660ff16815260200160018201548152602001600282015481526020016003820154815250509050828160a001818152505080600b600086815260200190815260200160002060008201518160000160006101000a81548160ff021916908360ff16021790555060208201518160000160016101000a81548160ff02191690831515021790555060408201518160000160026101000a81548160ff021916908360ff160217905550606082015181600101556080820151816002015560a0820151816003015590505050505050565b610afa610af4610f36565b83610fb3565b610b165760405162461bcd60e51b815260040161051e90612800565b610b2284848484611241565b50505050565b600b60205260009081526040902080546001820154600283015460039093015460ff808416946101008504821694620100009004909116929186565b60008061063083610f29565b6060610b7b82610f29565b610b975760405162461bcd60e51b815260040161051e906126ef565b60008281526008602052604081208054610bb0906129bf565b80601f0160208091040260200160405190810160405280929190818152602001828054610bdc906129bf565b8015610c295780601f10610bfe57610100808354040283529160200191610c29565b820191906000526020600020905b815481529060010190602001808311610c0c57829003601f168201915b505050505090506000610c3a610701565b9050805160001415610c4e57509050610460565b815115610c80578082604051602001610c689291906122a0565b60405160208183030381529060405292505050610460565b80610c8a85611274565b604051602001610c9b9291906122a0565b60405160208183030381529060405292505050919050565b600080610cbe6105db565b91505090565b33610cce57600080fd5b60008160ff16118015610ce55750600660ff821611155b610cee57600080fd5b600a54610cfa81610f29565b15610d0457600080fd5b6000610d0e610701565b610d1783611274565b604051602001610d289291906122a0565b6040516020818303038152906040529050600c81604051610d499190612284565b9081526040519081900360200190205460ff1615610d6657600080fd5b610d7033836113a8565b610d7a828261146c565b600a8054906000610d8a836129f4565b91905055506001600c82604051610da19190612284565b90815260408051918290036020018220805493151560ff199094169390931790925560c0810190915260009080610dd66114b0565b60ff168152602001610de661163f565b151581526020018560ff168152602001610dff86611661565b8152602001610e0d86611661565b8152600160209182018190526000958652600b825260409586902083518154938501519785015160ff908116620100000262ff0000199915156101000261ff00199290931660ff19909616959095171617969096169190911785556060820151908501556080810151600285015560a00151600390930192909255505050565b610e95611e83565b506000908152600b6020908152604091829020825160c081018452815460ff80821683526101008204811615159483019490945262010000900490921692820192909252600182015460608201526002820154608082015260039091015460a082015290565b6001600160a01b03918216600090815260056020908152604080832093909416825291909152205460ff1690565b600061065c600283611777565b3390565b600081815260046020526040902080546001600160a01b0319166001600160a01b0384169081179091558190610f6f826106d9565b6001600160a01b03167f8c5be1e5ebec7d5bd14f71427d1e84f3dd0314c0f7b2291e5b200ac8c7c3b92560405160405180910390a45050565b600061065c82611783565b6000610fbe82610f29565b610fda5760405162461bcd60e51b815260040161051e90612773565b6000610fe5836106d9565b9050806001600160a01b0316846001600160a01b031614806110205750836001600160a01b0316611015846104f7565b6001600160a01b0316145b8061103057506110308185610efb565b949350505050565b826001600160a01b031661104b826106d9565b6001600160a01b0316146110715760405162461bcd60e51b815260040161051e906126a6565b6001600160a01b0382166110975760405162461bcd60e51b815260040161051e90612475565b6110a28383836105d6565b6110ad600082610f3a565b6001600160a01b03831660009081526001602052604090206110cf9082611787565b506001600160a01b03821660009081526001602052604090206110f29082611793565b506110ff6002828461179f565b5080826001600160a01b0316846001600160a01b03167fddf252ad1be2c89b69c2b068fc378daa952ba7f163c4a11628f55a4df523b3ef60405160405180910390a4505050565b600061065983836117b5565b600061115d826106d9565b905061116b816000846105d6565b611176600083610f3a565b6000828152600860205260409020805461118f906129bf565b1590506111ad5760008281526008602052604081206111ad91611ec1565b6001600160a01b03811660009081526001602052604090206111cf9083611787565b506111db60028361180e565b5060405182906000906001600160a01b038416907fddf252ad1be2c89b69c2b068fc378daa952ba7f163c4a11628f55a4df523b3ef908390a45050565b6000808080611227868661181a565b9097909650945050505050565b600061103084848461188a565b61124c848484611038565b61125884848484611901565b610b225760405162461bcd60e51b815260040161051e906123ec565b60608161129957506040805180820190915260018152600360fc1b6020820152610460565b8160005b81156112c357806112ad816129f4565b91506112bc9050600a83612928565b915061129d565b60008167ffffffffffffffff8111156112ec57634e487b7160e01b600052604160045260246000fd5b6040519080825280601f01601f191660200182016040528015611316576020820181803683370190505b5090506000611326600184612965565b90508593505b831561139f5761133d600a85612a0f565b611348906030612910565b60f81b8282611356816129a8565b93508151811061137657634e487b7160e01b600052603260045260246000fd5b60200101906001600160f81b031916908160001a905350611398600a85612928565b935061132c565b50949350505050565b6001600160a01b0382166113ce5760405162461bcd60e51b815260040161051e906125d9565b6113d781610f29565b156113f45760405162461bcd60e51b815260040161051e9061243e565b611400600083836105d6565b6001600160a01b03821660009081526001602052604090206114229082611793565b5061142f6002828461179f565b5060405181906001600160a01b038416906000907fddf252ad1be2c89b69c2b068fc378daa952ba7f163c4a11628f55a4df523b3ef908290a45050565b61147582610f29565b6114915760405162461bcd60e51b815260040161051e9061265a565b600082815260086020908152604090912082516105d692840190611efd565b600060016002600360046005600660076008600e896114d08a60646119e0565b90508960ff831682116114e4575089611630565b8260ff168211801561150357506114fc83600261293c565b60ff168211155b1561150f575088611630565b61151a83600261293c565b60ff1682118015611538575061153183600361293c565b60ff168211155b15611544575087611630565b61154f83600361293c565b60ff168211801561156d575061156683600461293c565b60ff168211155b15611579575086611630565b61158483600461293c565b60ff16821180156115a2575061159b83600561293c565b60ff168211155b156115ae575085611630565b6115b983600561293c565b60ff16821180156115d757506115d083600661293c565b60ff168211155b156115e3575084611630565b6115ee83600661293c565b60ff168211801561160c575061160583600761293c565b60ff168211155b15611618575083611630565b61162383600761293c565b60ff168211156116305750825b9a505050505050505050505090565b600061164d600060016119e0565b60011461165b5760006105e7565b50600190565b6040805160e0810182526014815260326020820152604c91810191909152607260608201526090608082015260b960a082015260de60c082015260009060019060ff84168214156116cd5780516116c69060ff168260015b602002015160ff166119e0565b9150611770565b60ff8416600214156116ed5760208101516116c69060ff168260026116b9565b60ff84166003141561170d5760408101516116c69060ff168260036116b9565b60ff84166004141561172d5760608101516116c69060ff168260046116b9565b60ff84166005141561174d5760808101516116c69060ff168260056116b9565b60ff8416600614156117705760a081015161176d9060ff168260066116b9565b91505b5092915050565b60006106598383611a3c565b5490565b60006106598383611a54565b60006106598383611b71565b600061103084846001600160a01b038516611bbb565b815460009082106117d85760405162461bcd60e51b815260040161051e906123aa565b8260000182815481106117fb57634e487b7160e01b600052603260045260246000fd5b9060005260206000200154905092915050565b60006106598383611c6a565b81546000908190831061183f5760405162461bcd60e51b815260040161051e90612597565b600084600001848154811061186457634e487b7160e01b600052603260045260246000fd5b906000526020600020906002020190508060000154816001015492509250509250929050565b600082815260018401602052604081205482816118ba5760405162461bcd60e51b815260040161051e9190612397565b50846118c7600183612965565b815481106118e557634e487b7160e01b600052603260045260246000fd5b9060005260206000209060020201600101549150509392505050565b6000611915846001600160a01b0316611d9b565b61192157506001611030565b60006119a9630a85bd0160e11b611936610f36565b88878760405160240161194c949392919061230b565b604051602081830303815290604052906001600160e01b0319166020820180516001600160e01b038381831617835250505050604051806060016040528060328152602001612a7c603291396001600160a01b0388169190611da1565b90506000818060200190518101906119c1919061219c565b6001600160e01b031916630a85bd0160e11b1492505050949350505050565b6000806119ed8484612965565b6119f8906001612910565b444233604051602001611a0d939291906122cf565b6040516020818303038152906040528051906020012060001c611a309190612a0f565b90506110308482612910565b60009081526001919091016020526040902054151590565b60008181526001830160205260408120548015611b67576000611a78600183612965565b8554909150600090611a8c90600190612965565b90506000866000018281548110611ab357634e487b7160e01b600052603260045260246000fd5b9060005260206000200154905080876000018481548110611ae457634e487b7160e01b600052603260045260246000fd5b600091825260209091200155611afb836001612910565b60008281526001890160205260409020558654879080611b2b57634e487b7160e01b600052603160045260246000fd5b6001900381819060005260206000200160009055905586600101600087815260200190815260200160002060009055600194505050505061065c565b600091505061065c565b6000611b7d8383611a3c565b611bb35750815460018181018455600084815260208082209093018490558454848252828601909352604090209190915561065c565b50600061065c565b600082815260018401602052604081205480611c20575050604080518082018252838152602080820184815286546001818101895560008981528481209551600290930290950191825591519082015586548684528188019092529290912055610630565b8285611c2d600184612965565b81548110611c4b57634e487b7160e01b600052603260045260246000fd5b9060005260206000209060020201600101819055506000915050610630565b60008181526001830160205260408120548015611b67576000611c8e600183612965565b8554909150600090611ca290600190612965565b90506000866000018281548110611cc957634e487b7160e01b600052603260045260246000fd5b9060005260206000209060020201905080876000018481548110611cfd57634e487b7160e01b600052603260045260246000fd5b60009182526020909120825460029092020190815560019182015490820155611d27908490612910565b815460009081526001890160205260409020558654879080611d5957634e487b7160e01b600052603160045260246000fd5b600082815260208082206002600019909401938402018281556001908101839055929093558881528982019092526040822091909155945061065c9350505050565b3b151590565b6060611030848460008585611db585611d9b565b611dd15760405162461bcd60e51b815260040161051e90612851565b600080866001600160a01b03168587604051611ded9190612284565b60006040518083038185875af1925050503d8060008114611e2a576040519150601f19603f3d011682016040523d82523d6000602084013e611e2f565b606091505b5091509150611e3f828286611e4a565b979650505050505050565b60608315611e59575081610630565b825115611e695782518084602001fd5b8160405162461bcd60e51b815260040161051e9190612397565b6040518060c00160405280600060ff168152602001600015158152602001600060ff1681526020016000815260200160008152602001600081525090565b508054611ecd906129bf565b6000825580601f10611edf57506106c0565b601f0160209004906000526020600020908101906106c09190611f81565b828054611f09906129bf565b90600052602060002090601f016020900481019282611f2b5760008555611f71565b82601f10611f4457805160ff1916838001178555611f71565b82800160010185558215611f71579182015b82811115611f71578251825591602001919060010190611f56565b50611f7d929150611f81565b5090565b5b80821115611f7d5760008155600101611f82565b600067ffffffffffffffff80841115611fb157611fb1612a4f565b604051601f8501601f191681016020018281118282101715611fd557611fd5612a4f565b604052848152915081838501861015611fed57600080fd5b8484602083013760006020868301015250509392505050565b80356001600160a01b038116811461046057600080fd5b60006020828403121561202e578081fd5b61065982612006565b60008060408385031215612049578081fd5b61205283612006565b915061206060208401612006565b90509250929050565b60008060006060848603121561207d578081fd5b61208684612006565b925061209460208501612006565b9150604084013590509250925092565b600080600080608085870312156120b9578081fd5b6120c285612006565b93506120d060208601612006565b925060408501359150606085013567ffffffffffffffff8111156120f2578182fd5b8501601f81018713612102578182fd5b61211187823560208401611f96565b91505092959194509250565b6000806040838503121561212f578182fd5b61213883612006565b91506020830135801515811461214c578182fd5b809150509250929050565b60008060408385031215612169578182fd5b61217283612006565b946020939093013593505050565b600060208284031215612191578081fd5b813561063081612a65565b6000602082840312156121ad578081fd5b815161063081612a65565b6000602082840312156121c9578081fd5b813567ffffffffffffffff8111156121df578182fd5b8201601f810184136121ef578182fd5b61103084823560208401611f96565b60006020828403121561220f578081fd5b5035919050565b60008060408385031215612228578182fd5b50508035926020909101359150565b600060208284031215612248578081fd5b813560ff81168114610630578182fd5b6000815180845261227081602086016020860161297c565b601f01601f19169290920160200192915050565b6000825161229681846020870161297c565b9190910192915050565b600083516122b281846020880161297c565b8351908301906122c681836020880161297c565b01949350505050565b928352602083019190915260601b6bffffffffffffffffffffffff1916604082015260540190565b6001600160a01b0391909116815260200190565b6001600160a01b038581168252841660208201526040810183905260806060820181905260009061233e90830184612258565b9695505050505050565b6020808252825182820181905260009190848201906040850190845b8181101561238057835183529284019291840191600101612364565b50909695505050505050565b901515815260200190565b6000602082526106596020830184612258565b60208082526022908201527f456e756d657261626c655365743a20696e646578206f7574206f6620626f756e604082015261647360f01b606082015260800190565b60208082526032908201527f4552433732313a207472616e7366657220746f206e6f6e20455243373231526560408201527131b2b4bb32b91034b6b83632b6b2b73a32b960711b606082015260800190565b6020808252601c908201527f4552433732313a20746f6b656e20616c7265616479206d696e74656400000000604082015260600190565b60208082526024908201527f4552433732313a207472616e7366657220746f20746865207a65726f206164646040820152637265737360e01b606082015260800190565b60208082526019908201527f4552433732313a20617070726f766520746f2063616c6c657200000000000000604082015260600190565b60208082526038908201527f4552433732313a20617070726f76652063616c6c6572206973206e6f74206f7760408201527f6e6572206e6f7220617070726f76656420666f7220616c6c0000000000000000606082015260800190565b6020808252602a908201527f4552433732313a2062616c616e636520717565727920666f7220746865207a65604082015269726f206164647265737360b01b606082015260800190565b60208082526022908201527f456e756d657261626c654d61703a20696e646578206f7574206f6620626f756e604082015261647360f01b606082015260800190565b6020808252818101527f4552433732313a206d696e7420746f20746865207a65726f2061646472657373604082015260600190565b6020808252602c908201527f4552433732313a20617070726f76656420717565727920666f72206e6f6e657860408201526b34b9ba32b73a103a37b5b2b760a11b606082015260800190565b6020808252602c908201527f4552433732314d657461646174613a2055524920736574206f66206e6f6e657860408201526b34b9ba32b73a103a37b5b2b760a11b606082015260800190565b60208082526029908201527f4552433732313a207472616e73666572206f6620746f6b656e2074686174206960408201526839903737ba1037bbb760b91b606082015260800190565b6020808252602f908201527f4552433732314d657461646174613a2055524920717565727920666f72206e6f60408201526e3732bc34b9ba32b73a103a37b5b2b760891b606082015260800190565b6020808252818101527f63616c6c6572206973206e6f74206f776e6572206e6f7220617070726f766564604082015260600190565b6020808252602c908201527f4245503732313a206f70657261746f7220717565727920666f72206e6f6e657860408201526b34b9ba32b73a103a37b5b2b760a11b606082015260800190565b60208082526021908201527f4552433732313a20617070726f76616c20746f2063757272656e74206f776e656040820152603960f91b606082015260800190565b60208082526031908201527f4552433732313a207472616e736665722063616c6c6572206973206e6f74206f6040820152701ddb995c881b9bdc88185c1c1c9bdd9959607a1b606082015260800190565b6020808252601d908201527f416464726573733a2063616c6c20746f206e6f6e2d636f6e7472616374000000604082015260600190565b600060c08201905060ff835116825260208301511515602083015260ff6040840151166040830152606083015160608301526080830151608083015260a083015160a083015292915050565b90815260200190565b60ff968716815294151560208601529290941660408401526060830152608082019290925260a081019190915260c00190565b6000821982111561292357612923612a23565b500190565b60008261293757612937612a39565b500490565b600060ff821660ff84168160ff048111821515161561295d5761295d612a23565b029392505050565b60008282101561297757612977612a23565b500390565b60005b8381101561299757818101518382015260200161297f565b83811115610b225750506000910152565b6000816129b7576129b7612a23565b506000190190565b6002810460018216806129d357607f821691505b6020821081141561086057634e487b7160e01b600052602260045260246000fd5b6000600019821415612a0857612a08612a23565b5060010190565b600082612a1e57612a1e612a39565b500690565b634e487b7160e01b600052601160045260246000fd5b634e487b7160e01b600052601260045260246000fd5b634e487b7160e01b600052604160045260246000fd5b6001600160e01b0319811681146106c057600080fdfe4552433732313a207472616e7366657220746f206e6f6e20455243373231526563656976657220696d706c656d656e7465724552433732313a206f776e657220717565727920666f72206e6f6e6578697374656e7420746f6b656ea2646970667358221220e3da3f4b3ef9244102bb9f4676f521d2142611f4053bd5c106075a8d723511d964736f6c63430008000033",
  "immutableReferences": {},
  "source": "// SPDX-License-Identifier: MIT\n\npragma solidity >=0.7.0 <0.9.0;\npragma abicoder v2;\n\nimport \"./BEP721_CWOLFGAME.sol\";\n\ncontract Wolves is BEP721 {\n\n  uint8 private constant WOOD = 1;\n  uint8 private constant BRONZE = 2;\n  uint8 private constant SILVER = 3;\n  uint8 private constant GOLD = 4;\n  uint8 private constant PLATINUM = 5;\n  uint8 private constant DIAMOND = 6;\n\n  struct Wolf {\n    uint8 race;\n    bool gender;\n    uint8 level;\n    uint256 attack;\n    uint256 defense;\n    uint256 price; // for premium feature only\n  }\n\n  uint256 public wolvesCount = 0;\n  mapping(uint256 => Wolf) public allWolves;\n  mapping(string => bool) public wolfURIExists;\n\n\n  constructor() BEP721(\"WOLVES_CONTRACT\", \"CWF\") {\n    _setBaseURI(\"ipfs://\");\n  }\n\n  function setURIPrefix(string memory _baseURI) internal {\n      _setBaseURI(_baseURI);\n  }\n\n  function mintWolf(uint8 _level) external {\n    require(msg.sender != address(0));\n    require(_level>0 && _level<=DIAMOND);\n\n    uint256 tokenId = wolvesCount;\n    require(!_exists(tokenId));\n\n    string memory tokenURI = string(abi.encodePacked(baseURI(), Strings.toString(tokenId)));\n    require(!wolfURIExists[tokenURI]);\n\n    _mint(msg.sender, tokenId);\n    _setTokenURI(tokenId, tokenURI);\n\n    wolvesCount++;\n    wolfURIExists[tokenURI] = true;\n\n    Wolf memory newWolf =  Wolf(\n      randomRace(), //race\n      randomGender(), //gender\n      _level, //level\n      randomAttack(_level), //attack\n      randomDefense(_level), //defense\n      1 //price\n    );\n    allWolves[tokenId] = newWolf;\n  }\n\n  function isWolfExists(uint256 _wolfId) public view returns(bool) {\n    bool wolfExists = _exists(_wolfId);\n    return wolfExists;\n  }\n\n  function getWolfDetails(uint256 _wolfId) public view returns (Wolf memory) {\n    return allWolves[_wolfId];\n  }\n\n  function getWolfMetaData(uint256 _wolfId) public view returns(string memory) {\n    string memory wolfMetaData = tokenURI(_wolfId);\n    return wolfMetaData;\n  }\n\n  function getWolfOwner(uint256 _wolfId) public view returns(address) {\n    address _wolfOwner = ownerOf(_wolfId);\n    return _wolfOwner;\n  }\n\n  function getAllWolvesForUser(address user) public view returns (uint256[] memory) {\n    uint256 tokenCount = balanceOf(user);\n    if(tokenCount == 0) {\n      return new uint256[](0);\n    } else {\n      uint[] memory result = new uint256[](tokenCount);\n      uint256 resultIndex = 0;\n      \n      for(uint256 i = 0; i < wolvesCount; i++) {\n        if(ownerOf(i) == user) {\n          result[resultIndex] = i;\n          resultIndex++;\n        }\n      }\n      return result;\n    }\n  }\n\n  function getNumberOfWolvesMinted() public view returns(uint256) {\n    uint256 totalNumberOfWolvesMinted = totalSupply();\n    return totalNumberOfWolvesMinted;\n  }\n\n  function getTotalNumberOfWolvesOwnedByAnAddress(address _ownerAddress) public view returns(uint256) {\n    uint256 totalNumberOfWolvesOwned = balanceOf(_ownerAddress);\n    return totalNumberOfWolvesOwned;\n  }\n\n  function updateWolfPrice(uint256 _wolfId, uint256 _newPrice) public {\n    require(msg.sender != address(0));\n    require(_exists(_wolfId));\n    address wolfOwner = ownerOf(_wolfId);\n    require(wolfOwner == msg.sender);\n    Wolf memory curWolf = allWolves[_wolfId];\n    curWolf.price = _newPrice;\n    allWolves[_wolfId] = curWolf;\n  }\n\n  function burn(uint256 tokenId) external {\n      require(\n          _isApprovedOrOwner(_msgSender(), tokenId),\n          \"caller is not owner nor approved\"\n      );\n      _burn(tokenId);\n  }\n\n  function randomNumber(uint256 _from, uint256 _to) internal view returns (uint) {\n      uint rndNum = uint(keccak256(abi.encodePacked(block.difficulty, block.timestamp, msg.sender))) % (_to - _from + 1);\n      rndNum = rndNum + _from;\n      return rndNum;\n  }\n  \n  function randomGender() internal view returns (bool) {\n    return randomNumber(0,1)==1? true : false;\n  }\n\n  function randomRace() internal view returns (uint8) {\n    uint8   LAND      =   1;\n    uint8   WATER     =   2;\n    uint8   ICE       =   3;\n    uint8   FIRE      =   4;\n    uint8   FOREST    =   5;\n    uint8   AIR       =   6;\n    uint8   ELECTRIC  =   7;\n    uint8   LEGENDARY =   8;\n\n    uint8   PERCENT =   14;\n    uint256 n = randomNumber(1, 100);\n    uint8 race = LAND;\n    if(n <= PERCENT) {\n        race = LAND;\n    } else if( n > PERCENT && n <= PERCENT*2 ) {\n        race = WATER;\n    } else if( n > PERCENT*2 && n <= PERCENT*3 ) {\n        race = ICE;      \n    } else if( n > PERCENT*3 && n <= PERCENT*4 ) {\n        race = FIRE;\n    } else if( n > PERCENT*4 && n <= PERCENT*5 ) {\n        race = FOREST;\n    } else if( n > PERCENT*5 && n <= PERCENT*6 ) {\n        race = AIR;\n    } else if( n > PERCENT*6 && n <= PERCENT*7 ) {\n        race = ELECTRIC;\n    } else if( n > PERCENT*7 ) {\n        race = LEGENDARY;\n    }\n    return race;\n  }\n\n  function randomAttack(uint8 _level) internal view returns (uint256) {\n    uint256 attack = 1;\n    uint8[7] memory threshold = [20, 50, 76, 114, 144, 185, 222];\n\n    if(_level == WOOD) {\n      attack = randomNumber(threshold[0], threshold[1]);\n    } else if(_level == BRONZE) {\n      attack = randomNumber(threshold[1], threshold[2]);\n    } else if(_level == SILVER) {\n      attack = randomNumber(threshold[2], threshold[3]);\n    } else if(_level == GOLD) {\n      attack = randomNumber(threshold[3], threshold[4]);\n    } else if(_level == PLATINUM) {\n      attack = randomNumber(threshold[4], threshold[5]);\n    } else if(_level == DIAMOND) {\n      attack = randomNumber(threshold[5], threshold[6]);\n    }\n    return attack;\n  }\n\n  function randomDefense(uint8 _level) internal view returns (uint256) {\n    uint256 defence = 1;\n    uint8[7] memory threshold = [20, 50, 76, 114, 144, 185, 222];\n\n    if(_level == WOOD) {\n      defence = randomNumber(threshold[0], threshold[1]);\n    } else if(_level == BRONZE) {\n      defence = randomNumber(threshold[1], threshold[2]);\n    } else if(_level == SILVER) {\n      defence = randomNumber(threshold[2], threshold[3]);\n    } else if(_level == GOLD) {\n      defence = randomNumber(threshold[3], threshold[4]);\n    } else if(_level == PLATINUM) {\n      defence = randomNumber(threshold[4], threshold[5]);\n    } else if(_level == DIAMOND) {\n      defence = randomNumber(threshold[5], threshold[6]);\n    }\n    return defence;\n  }\n}",
  "sourcePath": "E:\\cwolf\\smartcontracts_prod\\contracts\\Wolves.sol",
  "compiler": {
    "name": "solc",
    "version": "0.8.0+commit.c7dfd78e.Emscripten.clang"
  },
  "schemaVersion": "3.4.3",
  "updatedAt": "2021-11-14T03:22:48.077Z",
  "networkType": "ethereum",
  "devdoc": {
    "kind": "dev",
    "methods": {
      "approve(address,uint256)": {
        "details": "See {IERC721-approve}."
      },
      "balanceOf(address)": {
        "details": "See {IERC721-balanceOf}."
      },
      "baseURI()": {
        "details": "Returns the base URI set via {_setBaseURI}. This will be automatically added as a prefix in {tokenURI} to each token's URI, or to the token ID if no specific URI is set for that token ID."
      },
      "getApproved(uint256)": {
        "details": "See {IERC721-getApproved}."
      },
      "isApprovedForAll(address,address)": {
        "details": "See {IERC721-isApprovedForAll}."
      },
      "name()": {
        "details": "See {IERC721Metadata-name}."
      },
      "ownerOf(uint256)": {
        "details": "See {IERC721-ownerOf}."
      },
      "safeTransferFrom(address,address,uint256)": {
        "details": "See {IERC721-safeTransferFrom}."
      },
      "safeTransferFrom(address,address,uint256,bytes)": {
        "details": "See {IERC721-safeTransferFrom}."
      },
      "setApprovalForAll(address,bool)": {
        "details": "See {IERC721-setApprovalForAll}."
      },
      "supportsInterface(bytes4)": {
        "details": "See {IERC165-supportsInterface}. Time complexity O(1), guaranteed to always use less than 30 000 gas."
      },
      "symbol()": {
        "details": "See {IERC721Metadata-symbol}."
      },
      "tokenByIndex(uint256)": {
        "details": "See {IERC721Enumerable-tokenByIndex}."
      },
      "tokenOfOwnerByIndex(address,uint256)": {
        "details": "See {IERC721Enumerable-tokenOfOwnerByIndex}."
      },
      "tokenURI(uint256)": {
        "details": "See {IERC721Metadata-tokenURI}."
      },
      "totalSupply()": {
        "details": "See {IERC721Enumerable-totalSupply}."
      },
      "transferFrom(address,address,uint256)": {
        "details": "See {IERC721-transferFrom}."
      }
    },
    "version": 1
  },
  "userdoc": {
    "kind": "user",
    "methods": {},
    "version": 1
  }
}